:100000000C9434000C9451000C9451000C94FF0299
:100010000C9451000C9451000C9451000C9451001C
:100020000C9451000C9451000C9451000C9451000C
:100030000C9451000C9451000C9451000C945100FC
:100040000C9451000C9451000C9451000C945100EC
:100050000C9451000C9451000C9451000C945100DC
:100060000C9451000C94510011241FBECFEFD8E026
:10007000DEBFCDBF11E0A0E0B1E0E2E6FBE002C0F0
:1000800005900D92A030B107D9F721E0A0E0B1E0D2
:1000900001C01D92A130B207E1F70E9439030C9410
:1000A000AF050C940000CF93DF931F92CDB7DEB75E
:1000B000198221E030E0AE014F5F5F4F65E780EDD0
:1000C0000E94AB0281E09981983609F080E00F90A0
:1000D000DF91CF9108950F931F93CF93DF9300D0BB
:1000E00000D000D0CDB7DEB78C0126E030E0AE0105
:1000F0004F5F5F4F6BE380ED0E94AB02898190E020
:10010000982F88272A81822BF801918380832B8165
:1001100030E0322F22278C81282B338322832D81BC
:1001200030E0322F22278E81282B35832483269698
:100130000FB6F894DEBF0FBECDBFDF91CF911F91F8
:100140000F910895CF93DF9300D0CDB7DEB788230A
:10015000C1F0813061F521E030E0AE014F5F5F4FCB
:100160006BE680ED0E94AB02898180648A8321E086
:1001700030E0AE014E5F5F4F6BE680ED0E9479028A
:100180002BC021E030E0AE014F5F5F4F6BE680EDAA
:100190000E94AB0289818F7B8A8321E030E0AE012F
:1001A0004E5F5F4F6BE680ED0E94790215C021E043
:1001B00030E0AE014F5F5F4F6BE680ED0E94AB0217
:1001C000898180648A8321E030E0AE014E5F5F4F19
:1001D0006BE680ED0E9479020F900F90DF91CF9136
:1001E0000895CF93DF931F92CDB7DEB7823049F0E9
:1001F000833051F0813011F0198208C088E0898382
:1002000005C080E1898302C088E1898321E030E074
:10021000AE014F5F5F4F6BE180ED0E9479020F905E
:10022000DF91CF910895CF93DF9300D0CDB7DEB7A4
:100230008130E9F030F0823089F1833009F445C033
:100240005AC021E030E0AE014F5F5F4F6CE180EDBE
:100250000E94AB028981877E8A8321E030E0AE0173
:100260004E5F5F4F6CE180ED0E94790259C021E042
:1002700030E0AE014F5F5F4F6CE180ED0E94AB025A
:100280008981877E88608A8321E030E0AE014E5FFD
:100290005F4F6CE180ED0E94790242C021E030E0C6
:1002A000AE014F5F5F4F6CE180ED0E94AB02898130
:1002B000877E80618A8321E030E0AE014E5F5F4F30
:1002C0006CE180ED0E9479022BC021E030E0AE01AC
:1002D0004F5F5F4F6CE180ED0E94AB0289818861C6
:1002E0008A8321E030E0AE014E5F5F4F6CE180ED2C
:1002F0000E94790215C021E030E0AE014F5F5F4FF0
:100300006CE180ED0E94AB028981877E8A8321E0C7
:1003100030E0AE014E5F5F4F6CE180ED0E947902EC
:100320000F900F90DF91CF910895CF93DF9300D07E
:10033000CDB7DEB78130E9F030F0823089F183301B
:1003400009F445C05BC021E030E0AE014F5F5F4F74
:100350006BE680ED0E94AB028981887F8A8321E071
:1003600030E0AE014E5F5F4F6BE680ED0E94790298
:100370005BC021E030E0AE014F5F5F4F6BE680ED88
:100380000E94AB028981887F81608A8321E030E00E
:10039000AE014E5F5F4F6BE680ED0E94790244C074
:1003A00021E030E0AE014F5F5F4F6BE680ED0E94D1
:1003B000AB028981887F82608A8321E030E0AE01D0
:1003C0004E5F5F4F6BE680ED0E9479022DC021E009
:1003D00030E0AE014F5F5F4F6BE680ED0E94AB02F5
:1003E0008981887F83608A8321E030E0AE014E5F9F
:1003F0005F4F6BE680ED0E94790216C021E030E08D
:10040000AE014F5F5F4F6BE680ED0E94AB028981CA
:10041000887F81608A8321E030E0AE014E5F5F4FCC
:100420006BE680ED0E9479020F900F90DF91CF91E3
:1004300008950E94280281E00E94950182E00E94B6
:10044000F10080E00E94130180E00E94A200089564
:1004500088E48093B8000895ECEBF0E0108294EA11
:10046000908390819923ECF79091B900987F983010
:10047000A1F48093BB0084E88093BC00ECEBF0E037
:1004800080818823ECF79091B900987F983139F0FA
:1004900081E0903429F480E0089581E0089580E0BF
:1004A00008958093BB0084E88093BC00ECEBF0E0FF
:1004B00080818823ECF79091B900987F81E0983291
:1004C00009F480E0089584EC8093BC00ECEBF0E04C
:1004D00080818823ECF78091BB00089584E88093A5
:1004E000BC00ECEBF0E080818823ECF78091BB004E
:1004F0000895CF92DF92FF920F931F93CF93DF93D4
:10050000C62F6A0189010E942C02F82E811115C0A4
:100510008C2F0E9451020115110559F0E6010C0DB6
:100520001D1D89910E94510281110AC0C017D10777
:10053000C1F784E98093BC0005C0FF24F39402C096
:10054000FF24F3948F2DDF91CF911F910F91FF9096
:10055000DF90CF900895AF92BF92DF92EF92FF921B
:100560000F931F93CF93DF93182F062F5A01E901A2
:100570000E942C02811122C0802F0E945102812FE3
:1005800081600E942C02D82E81111BC08E01015067
:10059000110951F0E5017501E00EF11E0E946302A0
:1005A0008993CE15DF05D1F7E501C00FD11F0E9459
:1005B0006E02888384E98093BC0005C0DD24D39457
:1005C00002C0DD24D3948D2DDF91CF911F910F9127
:1005D000FF90EF90DF90BF90AF9008951092C5000C
:1005E00087E68093C400E0ECF0E080818D7F80831B
:1005F00088E18093C10086E08093C20008951F9235
:100600000F920FB60F9211248F939F938091000148
:100610008F5F809300018FE19EE40197F1F700C0A6
:1006200000009F918F910F900FBE0F901F90189513
:10063000882311F02C9A08952C9808958823C1F0EE
:1006400090E02A9A2FEF35EA4EE0215030404040AA
:10065000E1F700C000002A982FEF35EA4EE0215064
:1006600030404040E1F700C000009F5F9813E9CFA1
:100670000895CF93DF93CDB7DEB7C953D1400FB6FE
:10068000F894DEBF0FBECDBF84B18C6184B92B9AC4
:100690000E94EE0290E080E80FB6F894809361002B
:1006A000909361000FBE10927A00E4E6F0E0808142
:1006B000876080830E941902E9E6F0E0808184600F
:1006C0008083E8E6F0E0808181608083EBE6F0E003
:1006D0008081826080830E945300882321F081E022
:1006E0000E9418031EC081E00E94180312E380E0FC
:1006F0000E9418032FEF80E792E021508040904045
:10070000E1F700C0000081E00E941803EFEFF0E77E
:1007100022E0E150F0402040E1F700C0000011501D
:1007200031F782E00E94130180E00E941803789460
:100730001EE181E00E9418038FEF90E7E2E0815014
:100740009040E040E1F700C0000080E00E94180304
:10075000FFEF20E782E0F15020408040E1F700C049
:100760000000115031F7812C912CA12CB12CC12CFF
:10077000D12C712C8E010B521F4F512C612C7E01FC
:1007800097ECE91A9EEFF90A22242394312C402E8B
:10079000C75CDE4F1883C953D140E1E07E16C1F03B
:1007A0007E1648F0F2E07F1609F441C023E072168D
:1007B00009F4F6C0BBC180910001833008F4B6C1D2
:1007C0001092000181E00E941E0377247394AEC151
:1007D0000F2EF2E37F2EF02D81E00E9418038FE7A9
:1007E00095EBE1E081509040E040E1F700C000006F
:1007F00080E00E941803FFE725EB81E0F1502040E4
:100800008040E1F700C000007A947110E5CF1092AB
:10081000000182E00E941E03FE013D96119211929A
:10082000E017F107D9F76894772471F87FC18091B8
:100830000001833020F11092000180E00E941E032D
:100840000F2EF3E07F2EF02D81E00E9418039FEF22
:10085000E1EEF4E09150E040F040E1F700C000002C
:1008600080E00E9418032FEF81EE94E02150804039
:100870009040E1F700C000007A947110E5CFCE01FE
:1008800007960E946B00EFE3FCE93197F1F700C097
:100890000000CE0101960E946B0089819A812F8110
:1008A0003885821B930B9C0122F422273327281BB7
:1008B000390B27393105F4F48B819C8129853A85E0
:1008C000821B930B9C0122F422273327281B390B10
:1008D000273931057CF48D819E812B853C85821BD7
:1008E000930B9C0122F422273327281B390B27392D
:1008F00031057CF0F601EE0FFF1F81E090E08C0FD8
:100900009D1FE80FF91F358624869FEFA91AB90AA3
:1009100014C1F601EE0FFF1F81E090E08C0F9D1FC8
:10092000E80FF91F158614869FEF891A990A05C1E9
:1009300011921192E017F107D9F7852C962CA52C6E
:10094000B62CC52CD62CF2C0EFEFCE1ADE0AF4E698
:10095000CF16D10408F4EAC0FE013D96852D962DF0
:1009600021913191820F931FE017F107C9F7C397C7
:1009700008F4D6C083E00E941E0310920001F80123
:1009800011921192EE15FF05D9F7852C962CA52C06
:10099000B62CC52CD62C0F2EF3E07F2EF02DC6C022
:1009A00080910001833020F11092000180E00E94CC
:1009B0001E030F2EF3E07F2EF02D81E00E9418031E
:1009C0002FEF81EE94E0215080409040E1F700C08D
:1009D000000080E00E941803EFEFF1EE24E0E15008
:1009E000F0402040E1F700C000007A947110E5CF9C
:1009F000CE0107960E946B008FE39CE90197F1F707
:100A000000C00000CE0101960E946B0089819A818E
:100A10002F813885821B930B9C0122F422273327D8
:100A2000281B390B27393105F4F48B819C812985EA
:100A30003A85821B930B9C0122F422273327281B23
:100A4000390B273931057CF48D819E812B853C85BE
:100A5000821B930B9C0122F422273327281B390B7E
:100A6000273931055CF0F601EE0FFF1FE00FF11F93
:100A7000118210829FEFA91AB90A67C0F601EE0F22
:100A8000FF1FE00FF11F31822082EFEF8E1A9E0AC6
:100A90005CC011921192EE15FF05D9F7852C962CAA
:100AA000A52CB62CC52CD62C41C0FFEFCF1ADF0ADF
:100AB00022E3C216D104D0F16801E42DC75CDE4FF9
:100AC000F881C953D140852D962D21913191820F06
:100AD000931FEE15FF05C9F73FC081E00E941E037A
:100AE00010920001F601119211926F01EE16FF06AD
:100AF000C9F7852C962CA52CB62CC52CD62C772482
:100B0000739414C0F601119211926F01EE16FF0654
:100B1000C9F7852C962CA52CB62CC52CD62C06C036
:100B2000852C962CA52CB62CC52CD62C8FE39CE9B5
:100B30000197F1F700C0000030CE92E389169104CE
:100B400008F402CFFE013D96F3CEE2E3AE16B10407
:100B500008F4ABCFF8019DCF892BA1F2BECFF8945A
:020B6000FFCFC5
:00000001FF
